S01C00004D6F746F72436F6E74726F6C6C65725F323031382E73726563A9
S113000051C000006EC000006CC000006AC0000057
S113001068C0000066C000000C94560D62C0000069
S113002060C000005EC000005CC000005AC0000058
S11300300C94C50C56C0000054C0000052C000000F
S11300400C94060C0C9445110C94F60E4AC0000056
S113005048C000000C94F20A0C94D40A42C0000078
S113006040C000003EC000003CC000003AC0000098
S113007038C0000036C0000034C0000032C00000A8
S11300800C942B0B0C940D0B2CC000002AC0000008
S113009028C00000C80ECD0ED30ED90EDF0EE40E1C
S11300A0EA0EF00E11241FBECFEFD0E1DEBFCDBFAC
S11300B011E0A0E0B1E0EEEDFDE200E00BBF02C014
S11300C007900D92A03EB107D9F724E0A0EEB1E06D
S11300D001C01D92A135B207E1F70E946D0B0C948B
S11300E0ED168ECFCF93DF93EC018AE290E00E946D
S11300F0C8169DAB8CAB8EE290E00E94C8169FABF5
S11301008EAB8CE290E00E94C81699AF88AF8AAD9E
S113011090E0E0EEF1E0918380838CAD90E09383F6
S113012082838FA590E0938782878CA99DA9958768
S113013084878EA99FA99787868788AD99AD918B6F
S1130140808BDF91CF9108950F931F93CF93DF930B
S1130150EC0100EE11E0F801808191818AAF828187
S113016093818CAF848195819EA38DA366817781D1
S1130170808591850E94521279AB68ABF801828523
S113018093858FA7848595859DAB8CAB8685978554
S11301909FAB8EAB8089918999AF88AFDF91CF9166
S11301A01F910F910895CF93DF93EA01813081F07D
S11301B018F08230D9F027C0BA018AE290E00E9498
S11301C0CD16E0EEF1E0D587C487118210821BC002
S11301D0BA018EE290E00E94CD16E0EEF1E0D787FE
S11301E0C68781E090E0918380830DC0BA018CE2E0
S11301F090E00E94CD16E0EEF1E0D18BC08B82E05E
S113020090E091838083DF91CF910895892B11F041
S1130210759A0895759808954F925F926F927F92A0
S11302209F92AF92BF92CF92DF92EF92FF920F9381
S11302301F93CF93DF93EC01962EC601B5010E9464
S113024052128701061B170BB801012E000C880BF4
S1130250990B0E9485122B013C0123E333E343E70E
S113026050E40E94391320E030E045E852E40E9453
S113027082110E9452126B017C0120E030E040EABE
S113028050E4C301B2010E94E6118823C4F520E0C2
S113029030E040EA50ECC301B2010E943513181655
S11302A074F530C08C819D81009729F0019789F401
S11302B01B821A820EC0101611062CF481E090E005
S11302C09B838A8306C0112324F482E090E09B83FD
S11302D08A83C6018338910514F082E890E06C01AA
S11302E0992314F4C12CD12CD0929D00C0929C006F
S11302F0DB86CA864E825F82688679860CC01D8240
S11303001C82D0CF81E090E09D838C83892D90E086
S113031099838883C7CFDF91CF911F910F91FF906D
S1130320EF90DF90CF90BF90AF909F907F906F90B1
S11303305F904F900895AF92BF92CF92DF92EF9269
S1130340FF920F931F93CF93DF93EC018BA19CA19A
S1130350892B61F18BAD813039F018F0823039F09E
S113036009C0ECA8FDA808C0EEA8FFA805C0E8AC29
S1130370F9AC02C0E12CF12CABA4BCA4CDA4DEA446
S11303800FA52FA138A549A55AA56BAD10E080EEA5
S113039091E042DF8091E4019091E501892BB1F075
S11303A08091E0019091E1018AAF10C0EAA8FBA816
S11303B0ABA4BCA4CDA4DEA40FA52FA138A549A548
S11303C05AA56BAD10E080EE91E026DFDF91CF916E
S11303D01F910F91FF90EF90DF90CF90BF90AF905F
S11303E008951092F3011092F4011092F501109205
S11303F0F6010895682F70E080E090E00E94851275
S113040020E030E048E452E40E94811127ED33EA11
S113041048E851E40E94EA116093F3017093F401F7
S11304208093F5019093F60108958F929F92AF9275
S1130430BF92CF92DF92EF92FF920F931F93CF93CD
S1130440DF93EC018E8D823021F4688D162F119587
S113045001C010E08E8D813009F41F8989A18111BA
S11304607BC0C0900001D0900101E0900201F090A7
S1130470030120E030E04EEB52E4C701B6010E94D4
S11304803513882354F420E030E048E452E4C701F3
S1130490B6010E94E61118166CF081E08093F20117
S11304A0612F110F770B880B990B0E9485126B013A
S11304B07C0125C01092F201612F110F770B880B7C
S11304C0990B0E9485126B017C012AE037ED43EA07
S11304D05BE30E9439139B01AC016091F3017091BD
S11304E0F4018091F5019091F6010E9482116093CC
S11304F0F3017093F4018093F5019093F60127EDD5
S113050033EA48E851E46091F3017091F401809179
S1130510F5019091F6010E9439134B015C0127E823
S11305203FEB46E25EE3C701B6010E9439139B012B
S1130530AC01C501B4010E94821120E030E048E41E
S113054052E40E9482116093000170930101809330
S113055002019093030111C089A1813071F4698D66
S113056070E080E090E00E94831260930001709339
S113057001018093020190930301C0900001D09087
S11305800101E0900201F090030120E030E04EEB25
S113059052E4C701B6010E94351318166CF480E0CA
S11305A090E0AEEBB2E48093000190930101A0933C
S11305B00201B093030116C020E030E048E452E4A5
S11305C0C701B6010E94E611882364F480E090E03C
S11305D0A8E4B2E48093000190930101A093020186
S11305E0B093030106E910E0F801E080F18020E017
S11305F030E048EC52E46091000170910101809177
S11306000201909103010E94EA114B015C01B701C0
S113061080E090E00E9483129B01AC01C501B4010B
S11306200E9439130E9452127093990060939800AB
S1130630F801608171810081118180E090E00E9465
S113064083126B017C0120E030E048EC52E46091BD
S113065000017091010180910201909103010E94B7
S1130660EA114B015C01B80180E090E00E94831222
S11306709B01AC01C501B4010E9439139B01AC017B
S1130680C701B6010E9481110E94521270939B000F
S113069060939A00609100017091010180910201C0
S11306A0909103010E945712698FDF91CF911F919E
S11306B00F91FF90EF90DF90CF90BF90AF909F90FD
S11306C08F900895539A0895813011F45B9A089598
S11306D05B980895CF93DF93EC016AEF71E080E0BB
S11306E00E94C00E21E043E050E067EF71E08AEF22
S11306F091E00E942111E7EFF1E061816F71618364
S113070070E0762F66278281682B80E090E00E945B
S1130710831220E030E049E852E40E94EA1120E02C
S113072030E040E251E40E94391320E030E048E830
S113073051E40E94811120E030E0A9010E9482115D
S1130740688379838A839B83DF91CF910895CF93C4
S1130750DF93EC016AEF71E081E00E94C00E21E0BA
S113076043E050E067EF71E08AEF91E00E942111CD
S1130770E7EFF1E061816F71618370E0762F6627A6
S11307808281682B41E0CE010E94880DDF91CF91D8
S11307900895CF93DF93EC016AEF71E084E00E9447
S11307A0C00E21E043E050E067EF71E08AEF91E092
S11307B00E942111E7EFF1E061816F71618370E0C4
S11307C0762F66278281682BCE010E94FA0DDF9175
S11307D0CF9108950F931F93CF93DF9300D000D050
S11307E0CDB7DEB78C016AEF71E086E00E94C00EDF
S11307F021E043E050E067EF71E08AEF91E00E946E
S11308002111E7EFF1E061816F71618370E0762F70
S113081066278281682B80E090E00E94831220E0AA
S113082030E040EA50E40E94391320E030E040E830
S113083059E30E94391369837A838B839C8369818A
S11308407A818B819C8120E030E048EC52E40E9464
S1130850391320E030E048EC51E40E948211F801A1
S113086060837183828393830F900F900F900F9016
S1130870DF91CF911F910F910895CF93DF93EC01F6
S11308806AEF71E087E00E94C00E21E043E050E08F
S113089067EF71E08AEF91E00E942111E7EFF1E048
S11308A061816F71618370E0762F66278281682B86
S11308B040E0CE010E94880DDF91CF9108950F93FF
S11308C01F93CF93DF938C01EB01CB010E943C106B
S11308D0882309F446C0F801868D843009F441C0A8
S11308E0888199818032F1E09F0791F180339240B1
S11308F0C1F581E0F801878F11A282E390E0938F24
S1130900828F8E81893040F0869586958695878B77
S11309108EE190E0958F848F8F81893088F08D816E
S11309209DEC899F812D1124869586958695F801E5
S1130930808F8EE190E0958F848F8F81893010F4C1
S1130940F801108E8E81893060F4F801178A09C08D
S113095081E0F80182A38B819C81968B858B8D81AC
S113096082AFDF91CF911F910F9108950F931F9341
S1130970CF93DF93CDB7DEB708EB13E080E592E0C9
S1130980F8019183808388E082838DA183836985C4
S11309907A858B859C8520E030E040E251E40E941A
S11309A039130E945212F801648369897A898B8908
S11309B09C8920E030E040E251E40E9439130E9417
S11309C05712F801768365836D897E898F89988DA6
S11309D00E945212072E000C880B990B0E9485125C
S11309E020E030E048EC52E40E94EA110E945212E6
S11309F09B01772324F422273327261B370B3093BC
S1130A00C0032093BF036A8D7B8D08EB13E080E065
S1130A1090E00E94831226E636E646E650E40E9401
S1130A20391320E030E040E05FE30E9439130E9474
S1130A305712F8016187898D8287C8010E947F104F
S1130A40DF91CF911F910F910895CF93DF93CDB78D
S1130A50DEB7EDEAF3E081E592E09183808381E003
S1130A60828321968FAD21978383CF010E947F10CB
S1130A70DF91CF910895AF92BF92CF92DF92EF9220
S1130A80FF920F931F93CF93DF93CDB7DEB7669793
S1130A900FB6F894DEBF0FBECDBF6C01FE013196D8
S1130AA096E1DF011D929A95E9F790912704209130
S1130AB0E503921B9F7109F44EC1F601178E12A231
S1130AC011A266E1CE01019608D5CE0101960E94DD
S1130AD0A5135C018C01D6018D919C91892B71F435
S1130AE06FE471E0CE0101960E94C213892B31F4A8
S1130AF0F60111A281E090E091838083D6018D916B
S1130B009C91892B71F061E671E0CE0101960E94FF
S1130B10C213892B31F4F60111821082178A158EC3
S1130B20148E62E771E0CE0101960E94C213892BF4
S1130B3011F5D60194961C921E929397DA968C9195
S1130B40813051F018F0823089F015C0F60184A983
S1130B5095A993AB82AB0FC0D601D6968D919C918B
S1130B60D797D3969C938E93D29705C0F60180AD08
S1130B7091AD93AB82AB65E871E0CE0101960E9422
S1130B80C213892B39F481E090E0D60194969C93AA
S1130B908E939397F60180819181892B39F0C50159
S1130BA00B970A9718F486EF8A0D878BD6018D91DF
S1130BB09C911197892B39F00A30110520F48AE0B1
S1130BC08A1958968C93F60180819181892B31F092
S1130BD0012B21F4178A108E82E3818FD60193961C
S1130BE08D919C919497019751F467E971E0CE013E
S1130BF001960E94C213892B11F4F60113AED6019B
S1130C0093968D919C919497019759F469E971E0B9
S1130C10CE0101960E94C213892B19F481E0F601DA
S1130C2083AFD60193968D919C919497019759F433
S1130C3065EB71E0CE0101960E94C213892B19F471
S1130C4082E0F60183AFD60193968D919C9194979F
S1130C50892B59F46BE971E0CE0101960E94C2130D
S1130C60892B19F480E090E0D1DAF60183A194A1F4
S1130C70892B59F463EA71E0CE0101960E94C213F4
S1130C80892B19F481E090E0C1DAD60193968D9115
S1130C909C919497892BA9F469EA71E0CE0101969D
S1130CA00E94C213892B69F4F60113AEE0ACF1ACD7
S1130CB006A917A924A935A942A953A962AD83ADF0
S1130CC072DAD60193968D919C919497892BB1F405
S1130CD067EB71E0CE0101960E94C213892B71F477
S1130CE081E0F60183AFE0ACF1AC06A917A924A911
S1130CF035A942A953A962AD83AD55DAD6019396BD
S1130D008D919C919497892BB1F467EC71E0CE019D
S1130D1001960E94C213892B71F482E0F60183AF1D
S1130D20E0ACF1AC06A917A924A935A942A953A995
S1130D3062AD83AD38DAD60193968D919C919497E8
S1130D40892B41F4C5010197873E934018F4F601BD
S1130D50B3AAA2AA78D366960FB6F894DEBF0FBEE4
S1130D60CDBFDF91CF911F910F91FF90EF90DF9056
S1130D70CF90BF90AF900895EF92FF920F931F937F
S1130D80CF93DF93CDB7DEB788ED91E00E94EB13EC
S1130D908EA59FA59F938F930F2EFAEDEF2EF1E072
S1130DA0FF2EF02DFF92EF920E94D3138CE290E07D
S1130DB00E94E61325968FAD25971F928F930DED14
S1130DC011E01F930F930E94D3138CE290E00E94D2
S1130DD0E61324968FAD24971F928F931F930F933E
S1130DE00E94D3138CE290E00E94E6138FA11F921D
S1130DF08F931F930F930E94D3138CE290E00E9471
S1130E00E61388A51F928F931F930F930E94D31309
S1130E108CE290E00E94E6138AA11F928F931F93A5
S1130E200F930E94D3138CE290E00E94E6136B8927
S1130E307C898D899E890E9452127F936F93FF92C1
S1130E40EF920E94D3138CE290E00E94E6136CA907
S1130E507DA98EA99FA90E9452127F936F93FF923E
S1130E60EF920E94D3130FB6F894DEBF0FBECDBF2E
S1130E708CE290E00E94E61389859A859F938F9374
S1130E80FF92EF920E94D3138CE290E00E94E6134B
S1130E908CA59DA59F938F93FF92EF920E94D313ED
S1130EA08CE290E00E94E6138DAD9EAD9F938F93EC
S1130EB01F930F930E94D3138CE290E00E94E613D9
S1130EC021968EAD9FAD21979F938F931F930F9380
S1130ED00E94D3138CE290E00E94E61323968EAD19
S1130EE09FAD23979F938F931F930F930E94D313C8
S1130EF08CE290E00E94E61388AD1F928F93FF92DC
S1130F00EF920E94D3138CE290E00E94E61368A94A
S1130F1079A98AA99BA90E9452127F936F93FF9289
S1130F20EF920E94D3130FB6F894DEBF0FBECDBF6D
S1130F30DF91CF911F910F91FF90EF900895CF9380
S1130F40DF93CDB7DEB78BA1823091F128F48823EB
S1130F5049F0813019F149C08430F1F198F18530BC
S1130F6099F043C080E40E94FD1080E80E940711BC
S1130F708F8D98A1892B21F480E20E94071135C03E
S1130F8080E20E94FD1031C080E20E94FD1080E4E6
S1130F900E94071180E80E94071127C080E20E9486
S1130FA0FD1080E80E94FD1080E40E940C111DC019
S1130FB080E80E94FD1080E40E940C1180E20E94EF
S1130FC00C1113C080E20E94FD1080E80E94FD1005
S1130FD080E40E94071109C080E40E94FD1080E8AB
S1130FE00E94FD1080E20E940711DF91CF910895C5
S1130FF069987198E998E9E6F0E0808184608083DB
S1131000E19AE99A08950F931F93CF93DF93FB011D
S11310102081318127343105B8F0EB018C016081E6
S1131020718180E090E00E9483129B01AC0160E03A
S113103076E788E896E40E94EA110E945712F801C4
S11310407183608319821882DF91CF911F910F9170
S11310500895CF92DF92EF92FF92CF93DF931F9286
S1131060CDB7DEB7898369017A01613019F56981E9
S113107070E080E090E00E94851222E135E841E6CC
S11310805EE30E943913A70196010E94EA1120E051
S113109030E048EC52E40E94391320E030E048E4A8
S11310A052E40E9482110E945712862F623329F55E
S11310B084E323C0623001F5698170E080E090E050
S11310C00E94851223EE3EEE4BE35EE30E94391349
S11310D0A70196010E94EA1120E030E048EC52E4B6
S11310E00E94391320E030E048E452E40E94821167
S11310F00E945712862F01C082E30F90DF91CF9197
S1131100FF90EF90DF90CF900895CF93DF93EC01A1
S11311108F8D811108C082E390E09B8F8A8F8EE1CE
S113112090E09D8F8C8F8091FD019091FE0100973E
S113113031F001979093FE018093FD0105C08091E9
S1131140FF0181111092FF018E8D823009F4B7C026
S113115030F4882361F0813009F48FC0E1C0843019
S113116009F4CFC0A0F0853009F451C0D9C08A8DEC
S11311709B8D892B11F083E08E8F80E0A5DA18A275
S113118030D9188E1F8A82E3898F1BAEC9C08AA109
S1131190811124C099DA25D982E3898F888D882327
S11311A069F02A853B854C855D858B899C8962E045
S11311B050DF898F898D1ED982E08E8F8F89882395
S11311C069F02A853B854C855D858B899C8962E025
S11311D040DF898F898D0ED981E08E8F8AA181307D
S11311E009F09EC08F89811103C0888D882341F046
S11311F08AAD811105C085E08E8F81E08093FC016A
S113120080E062DA1BAEEDD882E3898F89C081E089
S11312108BAF8091FC01882369F02A853B854C853E
S11312205D856BAD8B899C8914DF898F898DE2D8AC
S11312301092FC0181E089A3CE01F7D881E044DA61
S1131240888D882329F08AAD813011F482E08E8F55
S11312508F89882321F08AAD813009F48E8F8F899C
S113126081115EC0888D81115BC08C8D9D8D892B11
S113127009F056C083E08E8F53C019A2CE01D5D891
S113128081E022DA8F89811106C08C8D9D8D892B96
S113129011F483E08E8F8AA1813041F48AAD8111EB
S11312A005C085E08E8F81E08093FC01888D8823C2
S11312B0B9F18F89811134C082E08E8F31C019A2B7
S11312C0CE01B3D881E000DA888D811106C08C8DFF
S11312D09D8D892B11F483E08E8F8AA1813041F496
S11312E08AAD811105C085E08E8F81E08093FC0179
S11312F0888D811115C08F89882391F081E08E8FAC
S11313000FC08091FF01811102C083E08E8F80E0C5
S1131310DBD918A21BAE65D8188E1F8A82E3898F89
S11313208E8D833049F08E8D813031F08E8D8230F8
S113133019F08E8D853029F48A8D9B8D892B09F4C3
S11313401E8EDF91CF910895CF93DF938EB1877C6A
S11313508EB98DB188638DB9A1E9B0E08C918061BB
S11313608C938C91877F8C93E0E9F0E0808182609C
S1131370808380818E7F8083808180688083808168
S11313808F7B808380818062808380818F7E808355
S113139080818860808380818B7F80838C91816051
S11313A08C938C91897F8C93C6E9D0E085E890E09A
S11313B0998388836881798180E090E00E94831218
S11313C020E030E040E05FE30E9439130E945212B3
S11313D0E8E9F0E07183608388819981208131811B
S11313E0821B930B90939B0080939A006881798170
S11313F080E090E00E94831220E030E040E05FE370
S11314000E9439130E94521270939D0060939C00B5
S1131410DF91CF910895909106049F5F9F71209171
S1131420E4039217E1F3E92FF0E0E55DFB4F8083DD
S11314302FB7F89490930604E1ECF0E08081806289
S113144080832FBF08959091E4038091060498133C
S1131450FACF089590912A049F5F9F7120912804E8
S11314609217E1F3E92FF0E0EA51FC4F80832FB7A4
S1131470F89490932A04E9ECF0E080818062808300
S11314802FBF0895CF93C82FFB01848595850197BD
S113149039F0CA3011F48DE0BEDF8C2FBCDF06C0FA
S11314A0CA3011F48DE0D6DF8C2FD4DF80E090E0D9
S11314B0CF9108958091E50390912704891759F0FD
S11314C08F5F982F9F71E92FF0E0ED53FC4F8081DF
S11314D09093E503089580E008950F931F93CF93AD
S11314E0DF93EC016130B1F06250062F10E00F5F22
S11314F01F4F080F191FDEDF88838823E1F38D3027
S113150021F4D8DF8823E9F305C02196C017D10759
S113151091F7E8011882DF91CF911F910F910895FF
S11315208091E50390912704891761F08F5F8F7193
S1131530E82FF0E0ED53FC4F90818093E503892F71
S113154090E008958FEF9FEF08958091E3039091C9
S11315502904891761F08F5F8F71E82FF0E0E95F4C
S1131560FB4F90818093E303892F90E008958FEFE0
S11315709FEF0895CF93DF93FC01848595850197B0
S113158041F0CEDFEC019923E4F345DFCE01992746
S113159007C0DBDFEC019923E4F35CDFCE0199277C
S11315A09927DF91CF9108950F930FB7EF93FF938E
S11315B0E091E403F0910604E395EF71EF1305C0A5
S11315C0F091C100FF7DF093C100E093E403F0E0EB
S11315D0E55DFB4FE081E093C600FF91EF910FBF03
S11315E00F9118950F930FB79F939091C600EF93A7
S11315F0FF93E0912704F091E503E395EF71FE1763
S113160031F0E0932704F0E0ED53FC4F9083FF9119
S1131610EF919F910FBF0F9118950F930FB7EF9311
S1131620FF93E0912804F0912A04E395EF71EF13FE
S113163005C0F091C900FF7DF093C900E093280430
S1131640F0E0EA51FC4FE081E093CE00FF91EF918E
S11316500FBF0F9118950F930FB79F939091CE00E2
S1131660EF93FF93E0912904F091E303E395EF7185
S1131670FE1731F0E0932904F0E0E95FFB4F90831B
S1131680FF91EF919F910FBF0F911895E1E8F0E062
S1131690808183608083808188608083109285004C
S11316A010928400EFE6F0E08081826080838DE711
S11316B090E09093890080938800089584B58560B4
S11316C084BD84B5886084BD16BCEEE6F0E08081FC
S11316D08260808387E287BD0895F89492D511D201
S11316E033DE60E070E080E090E071D4CFDFE6DFCD
S11316F07FDC80E095D582E191E00E947200109237
S1131700C4001092C50088E98093C100EBE4F4E0C2
S113171084E091E093838283918380830E946203B7
S113172080E00E9464037894C1E067E973E082E199
S113173091E0C5D882E191E09ED980910502882389
S113174009F441C0809104028823F1F08DB79EB75B
S1131750CD970FB6F8949EBF0FBE8DBFADB7BEB781
S113176011968DE3E2E1F1E001900D928A95E1F7A3
S1131770FDD8109204028DB79EB7CD960FB6F8949B
S11317809EBF0FBE8DBF1DC08DB79EB7CD970FB640
S1131790F8949EBF0FBE8DBFADB7BEB711968DE353
S11317A0E2E1F1E001900D928A95E1F74ED9C09300
S11317B004028DB79EB7CD960FB6F8949EBF0FBEA8
S11317C08DBF1092050280910302882309F4ADCFE6
S11317D08DB79EB7CD970FB6F8949EBF0FBE8DBF41
S11317E0ADB7BEB711968DE3E2E1F1E001900D9241
S11317F08A95E1F7C1DA109203028DB79EB7CD96B0
S11318000FB6F8949EBF0FBE8DBF8FCF1F920F925D
S11318100FB60F9211240BB60F92EF920F931F93F2
S11318202F933F934F935F936F937F938F939F93E4
S1131830AF93BF93EF93FF9382E191E063D182E191
S113184091E063DC82E191E00E949B0182E191E0FE
S11318500E94A40080910802873009F051C081E001
S1131860809305028093030280912C0190912D01B5
S1131870892BB1F0E2E1F1E0978D278D81E0913081
S113188009F080E0811105C081E0211180E0882306
S113189039F0E2E1F1E0828D938D0197938F828F8D
S11318A080912E0190912F01892BB1F0E2E1F1E0BA
S11318B0978D278D81E0913009F080E0811105C07A
S11318C081E0211180E0882339F0E2E1F1E0848DA8
S11318D0958D0197958F848FE2E1F1E00285138560
S11318E02485358546815781608571850F2EF9E2FF
S11318F0EF2EF02D80E291E0E6D11092080203C0B1
S11319008F5F8093080280910602909107028436CB
S1131910910501F58DB79EB7CD970FB6F8949EBF8C
S11319200FBE8DBFADB7BEB711968DE3E2E1F1E016
S113193001900D928A95E1F702DB10920702109252
S113194006028DB79EB7CD960FB6F8949EBF0FBE14
S11319508DBF05C001969093070280930602FF9104
S1131960EF91BF91AF919F918F917F916F915F9113
S11319704F913F912F911F910F91EF900F900BBEBC
S11319800F900FBE0F901F9018951F920F920FB6D5
S11319900F9211240BB60F922F933F934F935F93A3
S11319A06F937F938F939F93AF93BF93EF93FF9323
S11319B08091000290910102803D974050F4809103
S11319C0000290910102019690930102809300021B
S11319D008C0109226011092250110920102109263
S11319E0000280910202873041F484E191E00E9478
S11319F03D041092020280E013C0863049F48DE366
S1131A0091E00E94EA03809102028F5F80930202B8
S1131A1080910202853021F486E08093020213C093
S1131A20843049F484E291E00E94C9038091020267
S1131A308F5F8093020280910202833021F484E05C
S1131A408093020213C0823021F483E08093020267
S1131A501AC080910202813049F488E191E00E9429
S1131A60A703809102028F5F809302028091020299
S1131A70811109C08CE191E00E946A038091020205
S1131A808F5F80930202FF91EF91BF91AF919F917D
S1131A908F917F916F915F914F913F912F910F9013
S1131AA00BBE0F900FBE0F901F9018951F920F92B0
S1131AB00FB60F9211240BB60F922F933F934F93AF
S1131AC05F936F937F938F939F93AF93BF93EF93A2
S1131AD0FF9360E072E085E291E095DAFF91EF9187
S1131AE0BF91AF919F918F917F916F915F914F9132
S1131AF03F912F910F900BBE0F900FBE0F901F9030
S1131B00189508957A9903C0FC01178A108E0895D8
S1131B108F929F92AF92BF92CF92DF92EF92FF92F9
S1131B200F931F93CF93DF9300D000D0CDB7DEB7D0
S1131B308C01F42E80E090E0E6D420E030E040EA2E
S1131B4050E497D520E030E040E859E392D520E016
S1131B5030E040E051E48DD520E030E040EA51E44B
S1131B60D0D369837A838B839C83FF2049F0898156
S1131B709A81AB81BC8189839A83AB83BC8308C07F
S1131B8089819A81AB81BC8189839A83AB83BC832D
S1131B90F801608171818281938189809A80AB8010
S1131BA0BC8026E636E646E65FE363D56B017C013E
S1131BB02DEC3CEC4CEC5DE3C501B4015AD59B0122
S1131BC0AC01C701B6019ED3F8016083718382839F
S1131BD093830F900F900F900F90DF91CF911F91EF
S1131BE00F91FF90EF90DF90CF90BF90AF909F90B8
S1131BF08F900895CF92DF92EF92FF92CF93DF936D
S1131C00EC0180E090E07FD420E030E040EA50E452
S1131C1030D520E030E040E859E32BD56B017C015E
S1131C202DEC3CEC4CE650E4D1D3181674F020E0D3
S1131C3030E040EA51E4C701B6011BD520E030E0B2
S1131C4040EB51E45ED333D4688326E636E646E9B6
S1131C5050E4C701B601BAD31816BCF02DEC3CEC25
S1131C604CE650E4C701B60100D5181674F420E020
S1131C7030E04EE552E4C701B601FBD420E030E881
S1131C804BE153E43ED313D4688326E636E646E9B3
S1131C9050E4C701B601E9D4181674F420E030E02A
S1131CA048E453E4C701B601E4D420E030E042E55F
S1131CB054E427D3FCD36883DF91CF91FF90EF9056
S1131CC0DF90CF9008954F925F926F927F928F92A0
S1131CD09F92AF92BF92CF92DF92EF920F931F9396
S1131CE0CF93DF93CDB7DEB728970FB6F894DEBF56
S1131CF00FBECDBF6C0149835A836B837C830D83F4
S1131D001E832F8338876D817E818F8198852981F9
S1131D103A814B815C81F60180809180A280B380FE
S1131D20A8D42B013C016E2D70E080E090E0EBD351
S1131D309B01AC01C301B2019CD420E030E04AE72E
S1131D4054E448D3A5019401DDD2F6016083718384
S1131D508283938328960FB6F894DEBF0FBECDBF5F
S1131D60DF91CF911F910F91EF90DF90CF90BF90B3
S1131D70AF909F908F907F906F905F904F90089559
S1131D8090E08830910588F5FC01E65BFF4FD4C4F0
S1131D9086E0FB0180831182089586E0FB01808345
S1131DA080E48183089586E0FB01808380E8818359
S1131DB0089586E0FB01808380EC8183089587E0A9
S1131DC0FB0180831182089587E0FB01808380E416
S1131DD08183089587E0FB01808380E881830895EF
S1131DE087E0FB01808380EC818308951F920F922A
S1131DF00FB60F9211240BB60F922F933F934F936C
S1131E005F936F938F939F93AF93BF93EF93FF93DE
S1131E10CF93DF931F92CDB7DEB78091E00080FFB0
S1131E2047C09091DE0090FF43C01092ED00EEEEAB
S1131E30F0E08081898380818F7B808380910E0292
S1131E4090910D02981789F18F702BE0829FC00149
S1131E501124FC01E154FD4F20812093F0002081E6
S1131E602093F20021812093F3002381AAEFB0E0B4
S1131E702C9324812C9325812C9326812C932781C8
S1131E802C9320852C9321852C9322852C93FC0163
S1131E90EF53FD4F80818F7080648093EF008091B9
S1131EA00E028F5F80930E027DC010920C027AC0E6
S1131EB081FF78C08091DE0081FF74C080E180934F
S1131EC0ED0080910A02282F30E090910B02291B2B
S1131ED031092F773327203131050CF058C0E82F12
S1131EE0EF709091EF002E2F30E04BE0E49FF00173
S1131EF01124E15FFD4F9F704281407F942B9283B8
S1131F004091F2009091F000407E9770942B908362
S1131F109091F3009183AAEFB0E09C9193839C91FC
S1131F2094839C9195839C9196839C9197839C9197
S1131F3090879C9191879C9192878F5F80930A02EE
S1131F4040814295469547705181652F660F660F13
S1131F50660F862F842B952F929596959770892BD3
S1131F60B1F48BE0829FF001839FF00D1124E15FB7
S1131F70FD4F8381833059F498E088E10FB6F894DB
S1131F80A895809360000FBE90936000FFCFEEEEA3
S1131F90F0E080818983898180818F7D808380E8DE
S1131FA08093EF000F90DF91CF91FF91EF91BF915C
S1131FB0AF919F918F916F915F914F913F912F912D
S1131FC00F900BBE0F900FBE0F901F901895CF93DC
S1131FD0DF93E8EDF0E021E020831092E2002CE0B2
S1131FE02093E30027E32093E4001092E70010928B
S1131FF0E6001092E9001092E8001092EC001092B2
S1132000E500CDEED0E01882AEEEB0E01C9220E107
S113201028831C921092F400282F2295220F207EF0
S11320202093F6009695879596958795969587952E
S11320308093F7001092F000862F8295880F807E9F
S11320408093F20076956795769567957695679572
S11320506093F30080E88093EF0083E08093DC00DA
S11320608093DE0080EB8093DB0082E0808310921B
S11320700902DF91CF910895CF93DF93EC01409152
S11320800B0220910A02241789F1A42FAF708BE070
S1132090A89FB0011124FB01E15FFD4F208122952F
S11320A0269527703181532F550F550F550F252B2A
S11320B032953695377028833983FB01EF5EFD4FE7
S11320C020812F702A83222399F0DB01AE5EBD4F5D
S11320D0FE01339630E02D5F3F4FCE01820F931FF8
S11320E02D912193E817F907D9F702C080E004C0C5
S11320F04F5F40930B0281E0DF91CF910895CF931E
S1132100DF93FC01ABEDB0E08C918F778C938091E1
S11321100C02811127C01092ED0080818295880FF6
S1132120807E8093F2008081918196958795969523
S11321308795969587958093F300DF0113969F0109
S1132140255F3F4FCAEFD0E09D919883A217B30754
S1132150D9F781E080930C02828180648093EF0040
S113216081E043C020910D02822F90E030910E0255
S1132170831B91098F7799274097B1F1A22FAF70F4
S11321808BE0A89FD0011124ED01C154DD4F808163
S1132190982F9295990F907E88818F71892B8883CF
S11321A08081982F9695969596958981807E892B26
S11321B0898391819295990F907E8F71892B898360
S11321C08281982F9F708A81807F892B8A83AE5366
S11321D0BD4F339688E001900D928A95E1F72F5F09
S11321E020930D0281E001C080E0EBEDF0E09081EE
S11321F090689083DF91CF91089595B1892B85B92B
S1132200089584B1806E84B980EEF7CF089595B1B6
S11322108095982395B9089595B1892785B908952E
S113222094B1976094B982FB992790F9282F227072
S113223081708065822B8CBD8CB5837F8CBD9DBDE8
S11322400895CF93DF93EC01289841155105C1F00F
S1132250FB01DC01460F571F8FEF209711F09C9173
S113226001C0982F9EBD0DB407FEFDCF6115710509
S113227011F09EB5908331961196E417F50769F72E
S11322802111289ADF91CF9108951F920F920FB6D2
S11322900F9211240BB60F922F933F934F935F939A
S11322A06F937F938F93AF93BF93EF93FF93AFE8B5
S11322B0B3E0EFE6F3E02FE833E08D91882359F0A3
S11322C04081518162817381505E6F4F7F4F4083A3
S11322D05183628373833496E217F30771F7FF9196
S11322E0EF91BF91AF918F917F916F915F914F91DA
S11322F03F912F910F900BBE0F900FBE0F901F9028
S113230018955058BB27AA270ED075C166D130F056
S11323106BD120F031F49F3F11F41EF45BC10EF435
S1132320E095E7FB51C1E92F77D180F3BA17620733
S113233073078407950718F071F49EF58FC10EF4A6
S1132340E0950B2EBA2FA02D0B01B90190010C01C1
S1132350CA01A0011124FF27591B99F0593F50F4D9
S1132360503E68F11A16F040A22F232F342F442731
S1132370585FF3CF469537952795A795F040539529
S1132380C9F77EF41F16BA0B620B730B840BBAF0F9
S11323909150A1F0FF0FBB1F661F771F881FC2F764
S11323A00EC0BA0F621F731F841F48F48795779578
S11323B06795B795F7959E3F08F0B3CF9395880F2F
S11323C008F09927EE0F979587950895D9D008F4CA
S11323D081E008950CD00FC107D140F0FED030F059
S11323E021F45F3F19F0F0C0511139C1F3C014D189
S11323F098F39923C9F35523B1F3951B550BBB27C8
S1132400AA2762177307840738F09F5F5F4F220F74
S1132410331F441FAA1FA9F333D00E2E3AF0E0E86D
S113242030D091505040E695001CCAF729D0FE2FB9
S113243027D0660F771F881FBB1F2617370748074B
S1132440AB07B0E809F0BB0B802DBF01FF27935801
S11324505F4F2AF09E3F510568F0B6C000C15F3F50
S1132460ECF3983EDCF3869577956795B795F795E9
S11324709F5FC9F7880F911D9695879597F90895E1
S1132480E1E0660F771F881FBB1F6217730784077D
S1132490BA0720F0621B730B840BBA0BEE1F88F78C
S11324A0E095089504D06894B111D9C00895BCD0C2
S11324B088F09F5790F0B92F9927B751A0F0D1F029
S11324C0660F771F881F991F1AF0BA95C9F712C0B3
S11324D0B13081F0C3D0B1E00895C0C0672F782F28
S11324E08827B85F39F0B93FCCF38695779567951F
S11324F0B395D9F73EF490958095709561957F4F8B
S11325008F4F9F4F0895E89409C097FB3EF4909530
S11325108095709561957F4F8F4F9F4F9923A9F0B8
S1132520F92F96E9BB279395F69587957795679547
S1132530B795F111F8CFFAF4BB0F11F460FF1BC08B
S11325406F5F7F4F8F4F9F4F16C0882311F096E91E
S113255011C0772321F09EE8872F762F05C06623CC
S113256071F096E8862F70E060E02AF09A95660F85
S1132570771F881FDAF7880F9695879597F908953E
S1132580990F0008550FAA0BE0E8FEEF1616170680
S1132590E807F907C0F012161306E407F50798F0E8
S11325A0621B730B840B950B39F40A2661F0232B01
S11325B0242B252B21F408950A2609F4A140A6957D
S11325C08FEF811D811D089597F99F6780E870E062
S11325D060E008959FEF80EC089500240A94161695
S11325E0170618060906089500240A9412161306FD
S11325F0140605060895092E0394000C11F488238B
S113260052F0BB0F40F4BF2B11F460FF04C06F5FA6
S11326107F4F8F4F9F4F089557FD9058440F551F7C
S113262059F05F3F71F04795880F97FB991F61F050
S11326309F3F79F087950895121613061406551FC7
S1132640F2CF4695F1DF08C0161617061806991F33
S1132650F1CF86957105610508940895E894BB2728
S113266066277727CB0197F908958ADF08F48FEF5F
S113267008950BD0C0CFB1DF28F0B6DF18F0952352
S113268009F0A2CFA7CF1124EACFC6DFA0F3959F0C
S1132690D1F3950F50E0551F629FF001729FBB2745
S11326A0F00DB11D639FAA27F00DB11DAA1F649FF1
S11326B06627B00DA11D661F829F2227B00DA11DA4
S11326C0621F739FB00DA11D621F839FA00D611D2A
S11326D0221F749F3327A00D611D231F849F600D4B
S11326E0211D822F762F6A2F11249F5750408AF084
S11326F0E1F088234AF0EE0FFF1FBB1F661F771F10
S1132700881F91505040A9F79E3F510570F05CCF4F
S1132710A6CF5F3FECF3983EDCF3869577956795FB
S1132720B795F795E7959F5FC1F7FE2B880F911D2D
S11327309695879597F90895EE0FFF1F0024001CC6
S11327400BBE0790F691E02D0994FC018827992788
S1132750E89421912032E9F3293010F02E30C8F3A7
S11327602B3239F02D3231F4689403C014D0820F27
S1132770911D219120532A30C8F31EF49095819520
S11327809F4F0895FB01DC018D9101908019011088
S1132790D9F3990B08957AE0979F902D879F802D08
S11327A0910D11240895CF93DF93CDB7DEB7AE0119
S11327B04B5F5F4FFA0161917191AF0180914D04BC
S11327C090914E0438D0DF91CF91089560914D04DB
S11327D070914E0443C20F931F93CF93DF93E09104
S11327E04D04F0914E04238121FF1BC08C01D0E0E5
S11327F0C0E0F80181918F0160914D0470914E0405
S1132800DB011896ED91FC911997882331F0099515
S1132810892B79F3DFEFCFEFECCF8AE00995892B91
S113282019F08FEF9FEF02C08D2F9C2FDF91CF9176
S11328301F910F9108952F923F924F925F926F9242
S11328407F928F929F92AF92BF92CF92DF92EF923C
S1132850FF920F931F93CF93DF93CDB7DEB72B97E0
S11328600FB6F894DEBF0FBECDBF6C017B018A01A9
S1132870FC0117821682838181FFBFC1CE010196BC
S11328803C01F6019381F70193FD859193FF8191BA
S11328907F01882309F4ADC1853239F493FD859114
S11328A093FF81917F01853221F4B60190E0D6D166
S11328B0E8CF912C212C312CFFE1F315D8F08B3289
S11328C079F038F4803279F08332A1F4232D206139
S11328D01DC08D3261F0803369F4232D216016C050
S11328E0832D8260382EE32DE4603E2E2AC0F32D22
S11328F0F8601DC037FC2DC020ED280F2A3040F0B1
S11329008E32B9F436FC75C1232D2064322E19C0E1
S113291036FE06C08AE0989E200D1124922E11C026
S1132920EAE02E9E200D1124222EF32DF0623F2E7C
S113293008C08C3621F4832D8068382E02C0883676
S113294041F4F70193FD859193FF81917F018111FA
S1132950B3CF982F9F7D9554933028F40C5F1F4F6D
S11329609FE399830DC0833631F0833771F083354B
S113297009F055C020C0F801808189830E5F1F4F84
S113298088248394912C530112C02801F2E04F0E45
S1132990511CF801A080B18036FE03C0692D70E09F
S11329A002C06FEF7FEFC5014ED14C018201F32DC0
S11329B0FF773F2E15C0280122E0420E511CF8017A
S11329C0A080B18036FE03C0692D70E002C06FEFB5
S11329D07FEFC5012DD14C01F32DF0683F2E82010C
S11329E033FC19C0822D90E088169906A0F4B60134
S11329F080E290E033D12A94F5CFF50137FC85913C
S1132A0037FE81915F01B60190E028D121102A940C
S1132A1021E0821A91088114910479F7E1C0843687
S1132A2011F0893639F5F80137FE07C060817181EC
S1132A30828193810C5F1F4F08C060817181072ED2
S1132A40000C880B990B0E5F1F4FF32DFF763F2E62
S1132A5097FF09C090958095709561957F4F8F4F32
S1132A609F4FF0683F2E2AE030E0A30133D1882E37
S1132A70861844C0853731F4232D2F7EB22E2AE0E8
S1132A8030E025C0932D997FB92E8F36C1F018F40C
S1132A90883579F0AEC0803719F0883721F0A9C0A5
S1132AA0E92FE061BE2EB4FE0DC0FB2DF460BF2EF5
S1132AB009C034FE0AC0292F2660B22E06C028E0C1
S1132AC030E005C020E130E002C020E132E0F8014E
S1132AD0B7FE07C060817181828193810C5F1F4FB3
S1132AE006C06081718180E090E00E5F1F4FA301FA
S1132AF0F1D0882E8618FB2DFF773F2E36FE0DC0B1
S1132B00232D2E7FA22E891458F434FE0BC032FCE0
S1132B1009C0832D8E7EA82E05C0B82CA32C03C01B
S1132B20B82C01C0B92CA4FE0FC0FE01E80DF11DA4
S1132B308081803321F49A2D997EA92E09C0A2FEAA
S1132B4006C0B394B39404C08A2D867809F0B39474
S1132B50A3FC10C0A0FE06C0B21480F4280C922C72
S1132B609B180DC0B21458F4B60180E290E076D000
S1132B70B394F8CFB21418F42B1802C0982C212C5B
S1132B80A4FE0FC0B60180E390E068D0A2FE16C098
S1132B90A1FC03C088E790E002C088E590E0B6019C
S1132BA00CC08A2D867851F0A1FE02C08BE201C0D0
S1132BB080E2A7FC8DE2B60190E050D0891430F495
S1132BC0B60180E390E04AD09A94F8CF8A94F30156
S1132BD0E80DF11D8081B60190E040D08110F6CF60
S1132BE0222009F44ECEB60180E290E037D02A9438
S1132BF0F7CFF6018681978102C08FEF9FEF2B9666
S1132C000FB6F894DEBF0FBECDBFDF91CF911F91F9
S1132C100F91FF90EF90DF90CF90BF90AF909F9077
S1132C208F907F906F905F904F903F902F9008957A
S1132C30FC010590615070400110D8F78095909583
S1132C408E0F9F1F0895FC01615070400190011088
S1132C50D8F7809590958E0F9F1F08950F931F931B
S1132C60CF93DF93FB01238121FD03C08FEF9FEFFF
S1132C702CC022FF16C0468157812481358142171A
S1132C80530744F4A081B1819D012F5F3F4F3183ED
S1132C9020838C93268137812F5F3F4F3783268390
S1132CA014C08B01EC01FB010084F185E02D099532
S1132CB0892BE1F6D80116968D919C911797019670
S1132CC017969C938E931697CE01DF91CF911F9107
S1132CD00F910895FA01AA27283051F1203181F18A
S1132CE0E8946F936E7F6E5F7F4F8F4F9F4FAF4F10
S1132CF0B1E03ED0B4E03CD0670F781F891F9A1F23
S1132D00A11D680F791F8A1F911DA11D6A0F711DD6
S1132D10811D911DA11D20D009F468943F912AE0E2
S1132D20269F11243019305D3193DEF6CF010895CA
S1132D30462F4770405D4193B3E00FD0C9F7F6CFFB
S1132D40462F4F70405D4A3318F0495D31FD4052C3
S1132D50419302D0A9F7EACFB4E0A6959795879559
S1132D6077956795BA95C9F7009761057105089538
S1132D709B01AC010A2E06945795479537952795E4
S1132D80BA95C9F7620F731F841F951FA01D08957C
S1132D90A8E1B0E042E050E005C012D0272F11C0F6
S1132DA0DC01CB01FC01F999FECF06C0F2BDE1BD07
S1132DB0F89A319600B40D9241505040B8F70895F6
S1132DC0262FF999FECF92BD81BD20BD0FB6F89490
S1112DD0FA9AF99A0FBE01960895F894FFCF6F
S1132DDE000048420000000300000000420ABA0A44
S1132DEE00000000000000000000000000000000D1
S1132DFE000000000000000000000032000000008F
S1132E0E00010000000100000000000000000000AE
S1132E1E0032000000006400C8009001000000535E
S1132E2E746172744D6F746F72436F6E74726F6CE3
S1132E3E0053746F704D6F746F72436F6E74726F54
S1132E4E6C005374617274436C75746368436F6E73
S1132E5E74726F6C0053746F70436C757463684353
S1132E6E6F6E74726F6C006E00660072656C6561D5
S1132E7E7365007374617274007365744E65757452
S1132E8E72616C506F730073657446697273744724
S1132E9E656172506F73007365745365636F6E640E
S1132EAE47656172506F73000D002569002575002A
S9030000FC
