:1000000051C000000C9482086BC0000069C0000061
:1000100067C0000065C0000063C0000061C0000050
:100020005FC000005DC000005BC0000059C0000060
:10003000FDC7000055C0000053C0000051C00000C3
:1000400061C700000C94310C0C94000A49C00000F8
:1000500047C000004BC600002BC6000041C0000096
:100060003FC000003DC000003BC0000039C00000A0
:1000700037C0000035C0000033C0000031C00000B0
:100080006EC600004EC600002BC0000029C0000054
:1000900027C00000E509E709E909EB09ED09F209C4
:1000A000F609FA0911241FBECFEFD0E1DEBFCDBFA4
:1000B00011E0A0E0B1E0EAE1F3E200E00BBF02C032
:1000C00007900D92AE33B107D9F723E0AEE3B1E06C
:1000D00001C01D92AE39B207E1F783D60C948B11A3
:1000E0008FCF10923F011092400110924101109267
:1000F00042010895682F70E080E090E00E946A0D50
:1001000020E030E048E452E40E94660C23E333E34D
:1001100043EC51E40E94CF0C60933F017093400187
:10012000809341019093420108954F925F926F92A4
:100130007F928F929F92AF92BF92CF92DF92EF9277
:10014000FF920F931F93CF93DF93EC018C8D82303E
:1001500021F46E89162F119501C010E08C8D81302D
:1001600009F41D8989A1811180C0C0900001D0903F
:100170000101E0900201F090030120E030E04EEB3D
:1001800052E4C701B6010E941A0E87FF0AC020E0A0
:1001900030E048E452E4C701B6010E94CB0C1816C7
:1001A00024F081E080933E0102C010923E01C8809D
:1001B000D980EA80FB80612F110F770B880B990B98
:1001C0000E946A0DA70196010E94660C6B017C01DA
:1001D00080913E0181111CC02AE037ED43EA5BE3C8
:1001E000C701B6010E941E0E9B01AC0160913F0148
:1001F0007091400180914101909142010E94670CF1
:1002000060933F01709340018093410190934201BC
:1002100023E333E343EC51E460913F0170914001EB
:1002200080914101909142010E941E0E4B015C01A0
:1002300029E63FE640ED5EE3C701B6010E941E0ECF
:100240009B01AC01C501B4010E94670C20E030E0C5
:1002500048E452E40E94670C60930001709301012E
:10026000809302019093030119C089A18130B1F4F8
:100270006F8970E080E090E00E94680D609300015B
:100280007093010180930201909303018881998109
:10029000AA81BB8188819981AA81BB8120E030E05D
:1002A0004EEB52E4609100017091010180910201D6
:1002B000909103010E941A0E181664F480E090E0F9
:1002C000AEEBB2E48093000190930101A093020190
:1002D000B093030120E030E048E452E46091000173
:1002E0007091010180910201909103010E94CB0C59
:1002F00087FF0CC080E090E0A8E4B2E480930001A6
:1003000090930101A0930201B0930301C0900001FA
:10031000D0900101E0900201F090030120E030E074
:1003200048EC52E4C701B6010E94CF0C4B015C01BE
:10033000609196007091970080E090E00E94680DB7
:10034000A50194010E941E0E0E94370D7093990022
:1003500060939800609196007091970000919600CC
:100360001091970080E090E00E94680D2B013C0105
:10037000B80180E090E00E94680DA50194010E9400
:100380001E0E9B01AC01C301B2010E94660C0E94CB
:10039000370D70939B0060939A00C701B6010E94CD
:1003A0003C0D6F8BDF91CF911F910F91FF90EF90DC
:1003B000DF90CF90BF90AF909F908F907F906F9085
:1003C0005F904F900895249A0895813011F42C9AEB
:1003D00008952C980895CF93DF93EC0166E471E0C3
:1003E00080E0E9D721E043E050E063E471E086E497
:1003F00091E00E94150CE3E4F1E061816F7161838B
:1004000070E0762F66278281682B40E0CE01DF9175
:10041000CF91A0C6CF93DF93EC0166E471E081E059
:10042000CAD721E043E050E063E471E086E491E064
:100430000E94150CE3E4F1E061816F71618370E06B
:10044000762F66278281682B41E0CE01DF91CF9124
:1004500081C6CF93DF93EC0166E471E082E0ABD715
:1004600021E043E050E063E471E086E491E00E9423
:10047000150CE3E4F1E061816F71618370E0762F28
:1004800066278281682B80E090E00E94680D20E062
:1004900030E049E852E40E94CF0C688379838A8374
:1004A0009B83DF91CF910895CF93DF93EC0166E4B6
:1004B00071E084E080D721E043E050E063E471E044
:1004C00086E491E00E94150CE3E4F1E061816F7134
:1004D000618370E0762F66278281682BCE01DF91E1
:1004E000CF91A3C60F931F93CF93DF93EC018B01A2
:1004F000CB010E94400B882309F440C08C8D8430CE
:10050000E9F1F801808191818032F1E09F0769F182
:100510008033924099F581E08D8F19A289E190E0B6
:10052000998F888FF80186818B3040F06AE00E94B5
:10053000810E8D8B8DE090E09B8F8A8FF8018581F5
:100540008C3140F06AE00E94810E8E8B8DE090E04D
:100550009B8F8A8FF80185818C3108F41E8AF801FF
:1005600086818B3058F41D8A09C081E08AA3F80186
:10057000838194819C8B8B8B85818E8FDF91CF9132
:100580001F910F9108950F931F93CF93DF93CDB7D2
:10059000DEB705E013E080E592E0F8019183808307
:1005A00088E082838BA183836F81788589859A8592
:1005B00020E030E040E251E40E941E0E0E94370D20
:1005C000F80164836F85788989899A8920E030E011
:1005D00040E251E40E941E0E0E943C0DF801768319
:1005E00065836B897C898D899E8920E030E048ECA9
:1005F00052E40E94CF0C0E943C0DF8017087678383
:10060000688D798D80E090E00E94680D26E636E6E0
:1006100046E650E40E941E0E0E943C0DF8016187E0
:100620008F898287C801DF91CF911F910F910C9420
:10063000800BCF93DF93CDB7DEB7EAEFF2E081E531
:1006400092E09183808381E082838CA18383CF01B8
:10065000DF91CF910C94800B0F931F93CF93DF9377
:10066000CDB7DEB785E391E00E94AE0E6F8178854D
:1006700089859A8520E030E048EC52E40E941E0E05
:100680000E94370D7F936F9387E391E09F938F9341
:100690000E94960E8CE290E00E94A90E8E8D1F9211
:1006A0008F930AE311E01F930F930E94960E8CE242
:1006B00090E00E94A90E8C8D24E6829FC001112437
:1006C0009F938F931F930F930E94960E8CE290E05E
:1006D0000E94A90E688D798D80E090E00E94680DDF
:1006E00026E636E646E650E40E941E0E0E943C0DC9
:1006F0007F936F931F930F930E94960E8CE290E06E
:100700000E94A90E6A8D7B8D0FB6F894DEBF0FBED6
:10071000CDBF80E090E00E94680D2EEA37E449E802
:1007200050E40E94CF0C0E943C0D7A87698718879D
:100730000F83DF91CF911F910F910C94960E5098DB
:100740005898E898E9E6F0E0808183608083E09A39
:10075000E89A0895CF92DF92EF92FF92CF93DF93C2
:100760001F92CDB7DEB7898369017A01613011F537
:10077000698170E080E090E00E946A0D20E235EA35
:1007800047E65EE30E941E0EA70196010E94CF0C71
:1007900020E030E048EC52E40E941E0E20E030E001
:1007A00048E452E40E94670C0E943C0D623321F53C
:1007B00063E322C06230F9F4698170E080E090E088
:1007C0000E946A0D21E53CEB4EED5DE30E941E0E9A
:1007D000A70196010E94CF0C20E030E048EC52E4E3
:1007E0000E941E0E20E030E048E452E40E94670CB4
:1007F0000E943C0D01C062E3862F0F90DF91CF91E4
:10080000FF90EF90DF90CF9008950F931F93CF93B9
:10081000DF93EC01688579858A859B8520E030E04F
:1008200040E751E40E941A0E87FD10C06885798563
:100830008A859B8511E020E030E048EC52E40E947C
:10084000CB0C87FF10E0111103C03BC010E039C092
:10085000688179818A819B8120E030E040E751E422
:100860000E941A0E87FF18C0688179818A819B8156
:1008700020E030E040E751EC0E94CB0C181664F405
:10088000688579858A859B8520E030E04CE552E4D7
:100890000E941A0E1816ACF480914B018F5F809362
:1008A0004B01833071F481E080934C0188E592E044
:1008B00090934A0180934901809148018F5F809312
:1008C00048018091490190914A01009731F00197C8
:1008D00090934A01809349010AC080914C0188237A
:1008E00031F080914801833010F410924C018C8DCE
:1008F000823009F4BDC030F4882361F0813009F4FE
:1009000092C0ECC0843009F4D7C0B0F0853009F44F
:1009100052C0E4C0888D998D892B21F0112311F0EC
:1009200083E08C8F80E051DD18A2DBDB1E8A1D8AFC
:1009300082E38F8B1F8ED2C08AA1811128C045DD32
:10094000D0DB82E38F8B8E89882379F081E03DDDD7
:10095000288539854A855B8589899A8962E0FADE2E
:100960008F8B8F89C7DB82E08C8F8D89882379F00C
:1009700081E02BDD288539854A855B8589899A89BF
:1009800062E0E8DE8F8B8F89B5DB81E08C8F8AA1F6
:10099000813009F0A3C08D89811103C08E8988231D
:1009A00029F08E8D811102C085E08C8F80E00DDDF5
:1009B0001F8E97DB91C081E008DD01E00F8F288555
:1009C00039854A855B856F8D89899A89C3DE8F8BCE
:1009D0008F8990DB89A109A3CE01A7DB8E898823AB
:1009E00049F09E8D8F8D981305C08E8D882311F050
:1009F00082E08C8F8D89882349F09E8D8F8D98138E
:100A000005C08E8D882311F081E08C8F8D89811136
:100A100065C08E89811162C08A8D9B8D892B09F0FA
:100A20005DC083E047C0888D998D409708F41D8A8A
:100A300019A2CE017ADB8D89811106C08A8D9B8D2A
:100A4000892B11F483E08C8F8AA1813029F48E8D5B
:100A5000811102C085E08C8F8AA1813009F03EC0EF
:100A60008E898823D9F18D89811138C082E022C016
:100A7000888D998D409708F41E8A19A2CE0155DB06
:100A80008E89811106C08A8D9B8D892B11F483E09C
:100A90008C8F8AA1813029F48E8D811102C085E06E
:100AA0008C8F8AA18130D1F49E89911117C09D89C4
:100AB0009923A1F08C8F12C080914C01811105C047
:100AC0008889843610F483E08C8F80E07EDC18A265
:100AD0001F8E07DB1E8A1D8A82E38F8B8C8D8330ED
:100AE00049F08C8D813031F08C8D823019F08C8DF5
:100AF000853039F4888D998D892B11F0111101C041
:100B00001C8E80914C01811103C08889843610F0BD
:100B100084E08C8FDF91CF911F910F910895CF9337
:100B2000DF938EB1877E8EB98DB188618DB9A1E9D1
:100B3000B0E08C9180618C938C91877F8C93E0E9FD
:100B4000F0E080818260808380818E7F80838081DD
:100B50008068808380818F7B8083808180628083B6
:100B600080818F7E80838C9181608C938C91897F32
:100B70008C93C6E9D0E085E890E09983888368810A
:100B8000798180E090E0A4D720E030E040E05FE3AE
:100B90000E941E0E6CD7E8E9F0E0718360838881C3
:100BA000998120813181821B930B90939B008093CC
:100BB0009A00DF91CF9108959091530393959F717F
:100BC000B0913103B917E1F3A92FB0E0A858BC4F99
:100BD0008C93F894909353039091C10090629093FA
:100BE000C10018959091770393959F71B09175030B
:100BF000B917E1F3A92FB0E0AD5CBC4F8C93F8942A
:100C0000909377039091C90090629093C9001895D2
:100C1000CF93C82FFB0184859585019739F0CA30A1
:100C200011F48DE0C9DF8C2FC7DF06C0CA3011F484
:100C30008DE0D8DF8C2FD6DF80E090E0CF91089553
:100C40009091320380917403981759F09F5F9F71C0
:100C5000A92FB0E0A05FBC4F8C919093320390E03D
:100C600008958FEF9FEF0895909130038091760360
:100C7000981759F09F5F9F71A92FB0E0AC5ABC4FF5
:100C80008C919093300390E008958FEF9FEF08953B
:100C9000FC0184859585019729F0D2DF97FDFDCF72
:100CA0008BDF04C0E1DF97FDFDCF9CDF90E008956E
:100CB0000F930FB7EF93FF93E0913103F09153033C
:100CC000E395EF71EF1305C0F091C100FF7DF09344
:100CD000C100E0933103F0E0E858FC4FE081E0937D
:100CE000C600FF91EF910FBF0F9118950F930FB7AB
:100CF0009F939091C600EF93FF93E0917403F0915E
:100D00003203E395EF71FE1731F0E0937403F0E0E6
:100D1000E05FFC4F9083FF91EF919F910FBF0F9188
:100D200018950F930FB7EF93FF93E0917503F09130
:100D30007703E395EF71EF1305C0F091C900FF7DD4
:100D4000F093C900E0937503F0E0ED5CFC4FE081A7
:100D5000E093CE00FF91EF910FBF0F9118950F9385
:100D60000FB79F939091CE00EF93FF93E09176039E
:100D7000F0913003E395EF71FE1731F0E0937603C5
:100D8000F0E0EC5AFC4F9083FF91EF919F910FBFE1
:100D90000F911895E1E8F0E0808183608083808185
:100DA000886080831092850010928400EFE6F0E066
:100DB0008081826080838DE790E0909389008093AA
:100DC0008800089584B5856084BD84B5886084BD3D
:100DD00016BCEEE6F0E080818260808387E287BD0A
:100DE0000895F8940BD59BDE60E070E080E090E021
:100DF000F4D3D0DFE7DFA3DC80E009D51092C40094
:100E00001092C50088E98093C10084E091E090933E
:100E10009B0380939A039093990380939803D3DA6A
:100E200080E0D3DA7894C1E064EE72E082E191E090
:100E300059DB80915201882309F441C0809151010E
:100E40008823F1F08DB79EB783970FB6F8949EBFB5
:100E50000FBE8DBFADB7BEB7119683E2E2E1F1E000
:100E600001900D928A95E1F78EDB109251018DB7BA
:100E70009EB783960FB6F8949EBF0FBE8DBF1DC060
:100E80008DB79EB783970FB6F8949EBF0FBE8DBFE8
:100E9000ADB7BEB7119683E2E2E1F1E001900D92A9
:100EA0008A95E1F7C6DBC09351018DB79EB7839653
:100EB0000FB6F8949EBF0FBE8DBF10925201809165
:100EC0005001882309F4B0CF8DB79EB783970FB632
:100ED000F8949EBF0FBE8DBFADB7BEB7119683E22B
:100EE000E2E1F1E001900D928A95E1F7B5DB109215
:100EF00050018DB79EB783960FB6F8949EBF0FBE74
:100F00008DBF92CF1F920F920FB60F9211240BB686
:100F10000F92EF920F931F932F933F934F935F93F3
:100F20006F937F938F939F93AF93BF93EF93FF93B1
:100F300082E191E06ADC80915501873009F04CC074
:100F400081E0809352018093500180912A01909119
:100F50002B01892B69F080912F01813049F4809118
:100F60002A0190912B01019790932B0180932A01E4
:100F700080912C0190912D01892B71F080912F018E
:100F8000813051F480912C0190912D010197909323
:100F90002D0180932C0108C080912F01811104C084
:100FA00010922D0110922C0100911A0110911B0139
:100FB00020911C0130911D014091160150911701A3
:100FC000609118017091190189E2E82E8EE191E09B
:100FD00095D11092550103C08F5F80935501809188
:100FE0005301909154018436910529F410925401D3
:100FF0001092530105C001969093540180935301C0
:10100000FF91EF91BF91AF919F918F917F916F91E0
:101010005F914F913F912F911F910F91EF900F9002
:101020000BBE0F900FBE0F901F9018951F920F923E
:101030000FB60F9211240BB60F922F933F934F933D
:101040005F936F937F938F939F93AF93BF93EF9330
:10105000FF9380914D0190914E01883B9B4050F44D
:1010600080914D0190914E01019690934E01809395
:101070004D0108C0109224011092230110924E01DC
:1010800010924D0180914F01833029F482E291E06A
:101090000BDA10924F0180914F01823041F48AE1C6
:1010A00091E0D7D980914F018F5F80934F0180915C
:1010B0004F01813041F486E191E0ACD980914F013C
:1010C0008F5F80934F0180914F01811108C082E1B1
:1010D00091E081D980914F018F5F80934F01FF9103
:1010E000EF91BF91AF919F918F917F916F915F91A0
:1010F0004F913F912F910F900BBE0F900FBE0F900D
:101100001F9018951F920F920FB60F9211240BB6D5
:101110000F922F933F934F935F936F937F938F9390
:101120009F93AF93BF93EF93FF9380E46CD3FF91B2
:10113000EF91BF91AF919F918F917F916F915F914F
:101140004F913F912F910F900BBE0F900FBE0F90BC
:101150001F9018958F929F92AF92BF92CF92DF927D
:10116000EF92FF920F931F93CF93DF9300D000D0A5
:10117000CDB7DEB78C0180E090E0AAD420E030E06B
:1011800040EA50E45BD520E030E040E859E356D532
:101190002EEA37E441E250E499D323EC34E64AE204
:1011A0005DE3FDD369837A838B839C8369817A8134
:1011B0008B819C812DEC3CEC4CE45EE388D369830D
:1011C0007A838B839C83F801608171818281938112
:1011D00089809A80AB80BC8026E636E646E65FE3EF
:1011E0002DD56B017C012DEC3CEC4CEC5DE3C50195
:1011F000B40124D59B01AC01C701B60168D3F80145
:1012000060837183828393830F900F900F900F9070
:10121000DF91CF911F910F91FF90EF90DF90CF90D2
:10122000BF90AF909F908F900895CF92DF92EF92F2
:10123000FF92CF93DF93EC0180E090E049D420E06F
:1012400030E040EA50E4FAD420E030E040E859E3EE
:10125000F5D46B017C012DEC3CEC4CE650E49BD3C7
:10126000181674F020E030E040EA51E4C701B601FE
:10127000E5D420E030E040EB51E428D3FDD368838F
:1012800026E636E646E950E4C701B60184D31816CF
:10129000BCF02DEC3CEC4CE650E4C701B601CAD4DE
:1012A000181674F420E030E04EE552E4C701B601B0
:1012B000C5D420E030E84BE153E408D3DDD36883A4
:1012C00026E636E646E950E4C701B601B3D418165F
:1012D00074F420E030E048E453E4C701B601AED432
:1012E00020E030E042E554E4F1D2C6D36883DF91D8
:1012F000CF91FF90EF90DF90CF9008954F925F9243
:101300006F927F928F929F92AF92BF92CF92DF9215
:10131000EF920F931F93CF93DF93CDB7DEB728974C
:101320000FB6F894DEBF0FBECDBF6C0149835A8360
:101330006B837C830D831E832F8338876D817E8131
:101340008F81988529813A814B815C81F60180806B
:101350009180A280B38072D42B013C016E2D70E08D
:1013600080E090E0B5D39B01AC01C301B20166D42B
:1013700020E030E04AE754E412D3A5019401A7D25B
:10138000F601608371838283938328960FB6F89465
:10139000DEBF0FBECDBFDF91CF911F910F91EF90B8
:1013A000DF90CF90BF90AF909F908F907F906F9085
:1013B0005F904F900895DB01482F50E04830510571
:1013C000F0F4FA01E65BFF4FA8C486E007C086E0B0
:1013D0000AC086E00CC086E00EC087E08C931196B0
:1013E0001C92089587E08C9380E407C087E08C937B
:1013F00080E803C087E08C9380EC11968C9308956D
:101400001F920F920FB60F9211240BB60F922F93CB
:101410003F934F935F938F939F93EF93FF93CF935C
:10142000DF931F92CDB7DEB78091E00080FF4EC002
:101430009091DE0090FF4AC01092ED008091EE0086
:1014400089838091EE008F7B8093EE0080915B0119
:1014500090915A019817B9F18F702BE0829FC001CB
:101460001124FC01E45FFD4F20812093F0002081D6
:101470002093F20021812093F30023812093FA002E
:1014800024812093FA0025812093FA00268120935D
:10149000FA0027812093FA0020852093FA00218505
:1014A0002093FA0022852093FA00FC01E25FFD4FB1
:1014B00080818F7080648093EF0080915B018F5FEB
:1014C00080935B0178C01092590175C081FF73C091
:1014D0008091DE0081FF6FC080E18093ED009091EC
:1014E0005701292F30E080915801281B31092F77AF
:1014F0003327203131050CF052C0E92FEF70809175
:10150000EF002BE0E29FF0011124E45AFE4F282F58
:101510002F708281807F822B82832091F2008091C4
:10152000F000207E8770822B80834091F3004183FE
:101530005091FA0053832091FA0024832091FA00FD
:1015400025832091FA0026832091FA002783209199
:10155000FA0020872091FA0021872091FA00228743
:101560009F5F90935701829586958770942F990F6E
:10157000990F990F292F282B342F329536953770D4
:10158000232B69F4533059F498E088E10FB6F894AE
:10159000A895809360000FBE90936000FFCF80916C
:1015A000EE00898389818091EE008F7D8093EE002B
:1015B00080E88093EF000F90DF91CF91FF91EF9142
:1015C0009F918F915F914F913F912F910F900BBE03
:1015D0000F900FBE0F901F901895CF93DF93E8EDFB
:1015E000F0E021E020831092E2002CE02093E30061
:1015F00027E32093E4001092E7001092E600109297
:10160000E9001092E8001092EC001092E500CDEE97
:10161000D0E01882AEEEB0E01C9220E128831C924C
:101620001092F400282F2295220F207E2093F6009E
:1016300023E0969587952A95E1F78093F70010921D
:10164000F000862F8295880F807E8093F20033E031
:10165000769567953A95E1F76093F30080E880937B
:10166000EF0083E08093DC008093DE0080EB8093CA
:10167000DB0082E0808310925601DF91CF910895C4
:10168000FC0120915801809157018217B9F1622F16
:101690006F708BE0689FA0011124DA01A45ABE4F3D
:1016A0008C9182958695877011969C91392F330F76
:1016B000330F330F832B9295969597708083918388
:1016C000DA01A25ABE4F8C918F7082833396BA0191
:1016D00040E050E090E0481759075CF4DA01A60FAB
:1016E000B71FA45ABE4F13963C9131934F5F5F4F83
:1016F000F2CF2F5F2093580181E0089580E0089594
:10170000CF93DF93FC018091DB008F778093DB0028
:1017100080915901811123C01092ED008081829542
:10172000880F807E8093F2008081918123E09695DE
:1017300087952A95E1F78093F300DF011396CF0197
:101740000B962D912093FA00A817B907D1F781E0E5
:1017500080935901828180648093EF0040C0209182
:101760005A01822F90E030915B01831B91098F77A2
:1017700099274097B1F1A22FAF708BE0A89FD001BD
:101780001124ED01C45FDD4F8081982F9295990F50
:10179000907E88818F71892B88838081982F969580
:1017A000969596958981807E892B898391819295E2
:1017B000990F907E8F71892B89838281982F9F70DA
:1017C0008A81807F892B8A83A15FBD4F339688E011
:1017D00001900D928A95E1F72F5F20935A0181E0E5
:1017E00001C080E09091DB0090689093DB00DF9176
:1017F000CF91089595B1892B85B9089584B1806EF4
:1018000084B980EEF7CF95B1892785B9089594B151
:10181000976094B982FB992790F9837080658CBD9D
:101820008CB5837F8CBD9DBD08952898FB01DC019C
:10183000460F571FE417F50789F0009711F03C9108
:1018400001C03FEF3EBD0DB407FEFDCF6115710530
:1018500011F03EB5308331961196ECCF2111289AC4
:1018600008951F920F920FB60F9211240BB60F928C
:101870008F939F93AF93BF93CF93DF93EF93FF9398
:10188000CCEDD2E0ECEBF2E08991882359F0808135
:101890009181A281B381905EAF4FBF4F80839183CE
:1018A000A283B383349682E0EC3DF80769F7FF9199
:1018B000EF91DF91CF91BF91AF919F918F910F9059
:1018C0000BBE0F900FBE0F901F9018955058BB275E
:1018D000AA270ED075C166D130F06BD120F031F45B
:1018E0009F3F11F41EF45BC10EF4E095E7FB51C17C
:1018F000E92F77D180F3BA1762077307840795073A
:1019000018F071F49EF58FC10EF4E0950B2EBA2FEE
:10191000A02D0B01B90190010C01CA01A0011124F5
:10192000FF27591B99F0593F50F4503E68F11A16A1
:10193000F040A22F232F342F4427585FF3CF469532
:1019400037952795A795F0405395C9F77EF41F1654
:10195000BA0B620B730B840BBAF09150A1F0FF0F1E
:10196000BB1F661F771F881FC2F70EC0BA0F621F0A
:10197000731F841F48F4879577956795B795F795FA
:101980009E3F08F0B3CF9395880F08F09927EE0F8C
:10199000979587950895D9D008F481E008950CD0E3
:1019A0000FC107D140F0FED030F021F45F3F19F0B5
:1019B000F0C0511139C1F3C014D198F39923C9F380
:1019C0005523B1F3951B550BBB27AA276217730745
:1019D000840738F09F5F5F4F220F331F441FAA1FF9
:1019E000A9F333D00E2E3AF0E0E830D091505040B9
:1019F000E695001CCAF729D0FE2F27D0660F771F67
:101A0000881FBB1F261737074807AB07B0E809F048
:101A1000BB0B802DBF01FF2793585F4F2AF09E3FDD
:101A2000510568F0B6C000C15F3FECF3983EDCF3AF
:101A3000869577956795B795F7959F5FC9F7880F56
:101A4000911D9695879597F90895E1E0660F771FA8
:101A5000881FBB1F621773078407BA0720F0621B39
:101A6000730B840BBA0BEE1F88F7E095089504D032
:101A70006894B111D9C00895BCD088F09F5790F0F8
:101A8000B92F9927B751A0F0D1F0660F771F881FA3
:101A9000991F1AF0BA95C9F712C0B13081F0C3D0BE
:101AA000B1E00895C0C0672F782F8827B85F39F05C
:101AB000B93FCCF3869577956795B395D9F73EF402
:101AC00090958095709561957F4F8F4F9F4F0895AA
:101AD000E89409C097FB3EF49095809570956195C8
:101AE0007F4F8F4F9F4F9923A9F0F92F96E9BB277E
:101AF0009395F695879577956795B795F111F8CFFA
:101B0000FAF4BB0F11F460FF1BC06F5F7F4F8F4F64
:101B10009F4F16C0882311F096E911C0772321F05A
:101B20009EE8872F762F05C0662371F096E8862FF2
:101B300070E060E02AF09A95660F771F881FDAF749
:101B4000880F9695879597F90895990F0008550F76
:101B5000AA0BE0E8FEEF16161706E807F907C0F033
:101B600012161306E407F50798F0621B730B840B3B
:101B7000950B39F40A2661F0232B242B252B21F415
:101B800008950A2609F4A140A6958FEF811D811DB5
:101B9000089597F99F6780E870E060E008959FEFEF
:101BA00080EC089500240A941616170618060906F4
:101BB000089500240A9412161306140605060895C3
:101BC000092E0394000C11F4882352F0BB0F40F44B
:101BD000BF2B11F460FF04C06F5F7F4F8F4F9F4F8B
:101BE000089557FD9058440F551F59F05F3F71F00D
:101BF0004795880F97FB991F61F09F3F79F0879574
:101C00000895121613061406551FF2CF4695F1DFFC
:101C100008C0161617061806991FF1CF869571058C
:101C2000610508940895E894BB2766277727CB01C0
:101C300097F908958ADF08F48FEF08950BD0C0CF8D
:101C4000B1DF28F0B6DF18F0952309F0A2CFA7CFB7
:101C50001124EACFC6DFA0F3959FD1F3950F50E092
:101C6000551F629FF001729FBB27F00DB11D639F4E
:101C7000AA27F00DB11DAA1F649F6627B00DA11DF4
:101C8000661F829F2227B00DA11D621F739FB00D9A
:101C9000A11D621F839FA00D611D221F749F33270A
:101CA000A00D611D231F849F600D211D822F762FA3
:101CB0006A2F11249F5750408AF0E1F088234AF0A0
:101CC000EE0FFF1FBB1F661F771F881F91505040EC
:101CD000A9F79E3F510570F05CCFA6CF5F3FECF3B4
:101CE000983EDCF3869577956795B795F795E795D8
:101CF0009F5FC1F7FE2B880F911D9695879597F9E9
:101D00000895991B79E004C0991F961708F0961B57
:101D1000881F7A95C9F780950895EE0FFF1F00245C
:101D2000001C0BBE0790F691E02D0994CF93DF9332
:101D3000CDB7DEB7AE014B5F5F4FFA016191719194
:101D4000AF0180919A0390919B0338D0DF91CF919E
:101D5000089560919A0370919B0343C20F931F9360
:101D6000CF93DF93E0919A03F0919B03238121FFAE
:101D70001BC08C01D0E0C0E0F80181918F0160911F
:101D80009A0370919B03DB011896ED91FC911997D2
:101D9000882331F00995892B79F3DFEFCFEFECCF72
:101DA0008AE00995892B19F08FEF9FEF02C08D2FE4
:101DB0009C2FDF91CF911F910F9108952F923F9209
:101DC0004F925F926F927F928F929F92AF92BF924B
:101DD000CF92DF92EF92FF920F931F93CF93DF93F7
:101DE000CDB7DEB72B970FB6F894DEBF0FBECDBFD1
:101DF0006C017B018A01FC0117821682838181FFBD
:101E0000BFC1CE0101963C01F6019381F70193FD1C
:101E1000859193FF81917F01882309F4ADC18532BB
:101E200039F493FD859193FF81917F01853221F4EF
:101E3000B60190E0D6D1E8CF912C212C312CFFE1D6
:101E4000F315D8F08B3279F038F4803279F08332A0
:101E5000A1F4232D20611DC08D3261F0803369F41F
:101E6000232D216016C0832D8260382EE32DE4607F
:101E70003E2E2AC0F32DF8601DC037FC2DC020ED8A
:101E8000280F2A3040F08E32B9F436FC75C1232D6C
:101E90002064322E19C036FE06C08AE0989E200DBE
:101EA0001124922E11C0EAE02E9E200D1124222E24
:101EB000F32DF0623F2E08C08C3621F4832D80680C
:101EC000382E02C0883641F4F70193FD859193FFC7
:101ED00081917F018111B3CF982F9F7D95549330CD
:101EE00028F40C5F1F4F9FE399830DC0833631F0B8
:101EF000833771F0833509F055C020C0F801808127
:101F000089830E5F1F4F88248394912C530112C044
:101F10002801F2E04F0E511CF801A080B18036FE7E
:101F200003C0692D70E002C06FEF7FEFC5014ED195
:101F30004C018201F32DFF773F2E15C0280122E0CE
:101F4000420E511CF801A080B18036FE03C0692DFD
:101F500070E002C06FEF7FEFC5012DD14C01F32D72
:101F6000F0683F2E820133FC19C0822D90E0881664
:101F70009906A0F4B60180E290E033D12A94F5CF1F
:101F8000F50137FC859137FE81915F01B60190E044
:101F900028D121102A9421E0821A910881149104F9
:101FA00079F7E1C0843611F0893639F5F80137FE4A
:101FB00007C060817181828193810C5F1F4F08C0CF
:101FC00060817181072E000C880B990B0E5F1F4FEB
:101FD000F32DFF763F2E97FF09C090958095709561
:101FE00061957F4F8F4F9F4FF0683F2E2AE030E082
:101FF000A30133D1882E861844C0853731F4232DB0
:102000002F7EB22E2AE030E025C0932D997FB92E85
:102010008F36C1F018F4883579F0AEC0803719F0EA
:10202000883721F0A9C0E92FE061BE2EB4FE0DC0B3
:10203000FB2DF460BF2E09C034FE0AC0292F266094
:10204000B22E06C028E030E005C020E130E002C03A
:1020500020E132E0F801B7FE07C060817181828122
:1020600093810C5F1F4F06C06081718180E090E01A
:102070000E5F1F4FA301F1D0882E8618FB2DFF772E
:102080003F2E36FE0DC0232D2E7FA22E891458F42C
:1020900034FE0BC032FC09C0832D8E7EA82E05C0F5
:1020A000B82CA32C03C0B82C01C0B92CA4FE0FC0BF
:1020B000FE01E80DF11D8081803321F49A2D997E77
:1020C000A92E09C0A2FE06C0B394B39404C08A2D01
:1020D000867809F0B394A3FC10C0A0FE06C0B21429
:1020E00080F4280C922C9B180DC0B21458F4B60141
:1020F00080E290E076D0B394F8CFB21418F42B18A5
:1021000002C0982C212CA4FE0FC0B60180E390E001
:1021100068D0A2FE16C0A1FC03C088E790E002C010
:1021200088E590E0B6010CC08A2D867851F0A1FEBA
:1021300002C08BE201C080E2A7FC8DE2B60190E014
:1021400050D0891430F4B60180E390E04AD09A94DC
:10215000F8CF8A94F301E80DF11D8081B60190E07B
:1021600040D08110F6CF222009F44ECEB60180E295
:1021700090E037D02A94F7CFF6018681978102C08C
:102180008FEF9FEF2B960FB6F894DEBF0FBECDBF3B
:10219000DF91CF911F910F91FF90EF90DF90CF9043
:1021A000BF90AF909F908F907F906F905F904F9077
:1021B0003F902F900895FC010590615070400110F0
:1021C000D8F7809590958E0F9F1F0895FC01615060
:1021D000704001900110D8F7809590958E0F9F1F49
:1021E00008950F931F93CF93DF93FB01238121FD6C
:1021F00003C08FEF9FEF2CC022FF16C0468157818E
:10220000248135814217530744F4A081B1819D0197
:102210002F5F3F4F318320838C93268137812F5F3F
:102220003F4F3783268314C08B01EC01FB010084F0
:10223000F185E02D0995892BE1F6D80116968D914F
:102240009C911797019617969C938E931697CE01A3
:10225000DF91CF911F910F910895FA01AA2728309D
:1022600051F1203181F1E8946F936E7F6E5F7F4F63
:102270008F4F9F4FAF4FB1E03ED0B4E03CD0670FDF
:10228000781F891F9A1FA11D680F791F8A1F911D32
:10229000A11D6A0F711D811D911DA11D20D009F482
:1022A00068943F912AE0269F11243019305D3193C4
:1022B000DEF6CF010895462F4770405D4193B3E0AD
:1022C0000FD0C9F7F6CF462F4F70405D4A3318F054
:1022D000495D31FD4052419302D0A9F7EACFB4E005
:1022E000A6959795879577956795BA95C9F70097BD
:1022F0006105710508959B01AC010A2E069457955E
:10230000479537952795BA95C9F7620F731F841FB4
:0A231000951FA01D0895F894FFCF5B
:10231A0000004842000000030000000008064806CA
:10232A0000000000000000000000000000000000A3
:10233A000000000000000000003200000000000160
:0E234A0000000000000D002569002575000050
:00000001FF
